:1000000078C00000A5C00000A3C00000A1C000008F
:100010009FC000009DC000009BC0000099C0000070
:1000200097C0000095C0000093C0000091C0000080
:100030008FC000008DC000008BC0000089C0000090
:1000400087C0000085C0000083C0000081C00000A0
:100050007FC000007DC000007BC000002FC20000F8
:1000600077C00000F5C10000CAC1000071C00000E7
:100070006FC000006DC000006BC0000069C00000D0
:1000800067C0000065C0000063C0000061C00000E0
:100090005FC000005DC000005BC0000059C00000F0
:1000A00057C0000055C0000053C0000051C0000000
:1000B0004FC000004DC000004BC0000049C0000010
:1000C00047C0000045C0000043C0000041C0000020
:1000D0003FC000003DC000003BC0000039C0000030
:1000E00037C000006364696E6F70737578585B0089
:1000F000A80211241FBECFEFD1E2DEBFCDBF00E0CA
:100100000CBF23E0A6E4B2E001C01D92A934B207FF
:10011000E1F712E0A0E0B2E0ECEEF3E100E00BBFAB
:1001200002C007900D92A634B107D9F710E0C9E7D5
:10013000D0E000E005C021970109802FFE0186D3A1
:10014000C837D10780E00807B1F741D20C94F40911
:1001500057CFAF92BF92CF92DF92EF92FF920F9361
:100160001F93CF93DF936C017B018B01040F151F4D
:10017000EB015E01AE18BF08C017D10759F06991B5
:10018000D601ED91FC910190F081E02DC601199509
:10019000892B79F7C501DF91CF911F910F91FF90C6
:1001A000EF90DF90CF90BF90AF900895FC01538DFA
:1001B000448D252F30E0842F90E0821B930B541741
:1001C00010F0CF96089501970895FC01918D828DCE
:1001D000981761F0A28DAE0FBF2FB11D5D968C9167
:1001E000928D9F5F9F73928F90E008958FEF9FEFA6
:1001F0000895FC01918D828D981731F0828DE80F62
:10020000F11D858D90E008958FEF9FEF0895FC011B
:10021000918D228D892F90E0805C9F4F821B9109E8
:100220008F7399270895FC01A48DA80FB92FB11DD4
:10023000A35ABF4F2C91848D90E001968F7399271C
:10024000848FA689B7892C93A089B1898C918370FA
:1002500080648C93938D848D981306C00288F389F3
:10026000E02D80818F7D80830895EF92FF920F9320
:100270001F93CF93DF93EC0181E0888F9B8D8C8D52
:1002800098131AC0E889F989808185FF15C09FB746
:10029000F894EE89FF896083E889F9898081837009
:1002A000806480839FBF81E090E0DF91CF911F91B8
:1002B0000F91FF90EF900895F62E0B8D10E00F5FD9
:1002C0001F4F0F731127E02E8C8D8E110BC00FB6B0
:1002D00007FCFACFE889F989808185FFF5CFCE0147
:1002E000A2DFF2CFEB8DEC0FFD2FF11DE35AFF4F94
:1002F000F0829FB7F8940B8FEA89FB898081806236
:10030000D0CFCF93DF93EC01888D8823B1F0AA89F9
:10031000BB89E889F9898C9185FD03C0808186FDC0
:100320000CC00FB607FCF7CF8C9185FFF2CF808110
:1003300085FFEDCFCE0177DFEACFDF91CF91089532
:1003400080915602823099F0833049F08130B1F4C7
:100350008091C80087FFFCCF8091CE0006C08091BD
:10036000300187FFFCCF8091360190E008958091A5
:10037000D00087FFFCCF8091D600F7CF8091C000DE
:1003800087FFFCCF8091C600F0CFCF93C82F80911C
:1003900056028230F1F0833069F0813029F5CA309D
:1003A00011F48DE0F2DF8091C80085FFFCCFC0938F
:1003B000CE000AC0CA3011F48DE0E7DF8091300131
:1003C00085FFFCCFC09336018C2FCC0F990BCF91BA
:1003D0000895CA3011F48DE0D8DF8091D00085FFF8
:1003E000FCCFC093D600F0CFCA3011F48DE0CDDF42
:1003F0008091C00085FFFCCFC093C600E5CF1F925F
:100400000F920FB60F9211240BB60F922F933F93BA
:100410004F935F936F937F938F939F93AF93BF930C
:10042000EF93FF9380E692E0FEDEFF91EF91BF91A4
:10043000AF919F918F917F916F915F914F913F917C
:100440002F910F900BBE0F900FBE0F901F9018951D
:100450001F920F920FB60F9211240BB60F922F938B
:100460008F939F93EF93FF93E0917002F09171024D
:100470008081E0917602F091770282FD1DC090812B
:10048000809179028F5F8F7320917A02821741F0F9
:10049000E0917902F0E0E05AFD4F958F8093790268
:1004A000FF91EF919F918F912F910F900BBE0F9025
:1004B0000FBE0F901F9018958081F2CF1F920F9260
:1004C0000FB60F9211242F933F938F939F93AF9367
:1004D000BF9380915C0290915D02A0915E02B09109
:1004E0005F0230915B0223E0230F2D3758F5019610
:1004F000A11DB11D20935B0280935C0290935D026D
:10050000A0935E02B0935F028091570290915802CF
:10051000A0915902B0915A020196A11DB11D80937C
:10052000570290935802A0935902B0935A02BF9178
:10053000AF919F918F913F912F910F900FBE0F9090
:100540001F90189526E8230F0296A11DB11DD2CF4A
:10055000E0E6F2E01382128288EE93E0A0E0B0E0E1
:1005600084839583A683B78382E192E0918380831D
:1005700085EC90E09587848784EC90E09787868768
:1005800080EC90E0918B808B81EC90E0938B828B60
:1005900082EC90E0958B848B86EC90E0978B868B39
:1005A000118E128E138E148EEDEFF2E016821782EA
:1005B000108611861286138614861586168617866F
:1005C000108A118A128A138A148A158A0895CF9381
:1005D000DF931F921F92CDB7DEB78FEF81B91092D4
:1005E000560280E092E090934403809343039093FB
:1005F0004603809345031092C0001092C50087E621
:100600008093C40088E18093C10086E08093C2009B
:100610001A821982F12CE12C9E012F5F3F4F490174
:1006200090E2692E92E0792EA12CBB24B39433E2A0
:10063000C32E32E0D32E55245A949F928F927F92EC
:100640006F921FD129813A81C901B501D8D08C019F
:100650001F938F933F932F93DF92CF92FFD0898187
:100660009A810FB6F894DEBF0FBECDBF8E159F05E1
:1006700081F11092470210924602109249021092A4
:10068000480210924B0210924A0210924D021092B0
:100690004C0210924F0210924E0210925102109290
:1006A0005002109253021092520210925502109270
:1006B00054029C0197FF02C021503F4F432F532FFC
:1006C000550F550B30E020E0421753070CF048C09F
:1006D0007C01E6E4F2E0101611060CF461C0809192
:1006E000460290914702892B09F06EC010988091C4
:1006F000480290914902892B09F068C011988091B5
:100700004A0290914B02892B09F062C012988091A5
:100710004C0290914D02892B09F05CC01398809196
:100720004E0290914F02892B09F056C01498809187
:10073000500290915102892B09F050C01598809178
:10074000520290915302892B09F04AC01698809169
:10075000540290915502892B09F044C017986DCF2F
:1007600012B852B870E060E0EFE9FFE03197F1F7BE
:1007700000C000006F5F7F4F64367105A9F712B8A3
:1007800070E060E0AFE9BFE01197F1F700C0000052
:100790006F5F7F4F64367105A9F72F5F3F4F94CF8E
:1007A000C80181709927819391931595079590E0E1
:1007B00080E0AFE9BFE01197F1F700C000000196BB
:1007C00084319105B1F787CF109A91CF119A97CFC5
:1007D000129A9DCF139AA3CF149AA9CF159AAFCF8F
:1007E000169AB5CF179A29CF911106C0803219F009
:1007F00089508550D0F7089599278827089597FB49
:10080000072E16F4009406D077FD08D00BD007FC15
:1008100005D03EF4909581959F4F08957095619510
:100820007F4F0895AA1BBB1B51E107C0AA1FBB1F26
:10083000A617B70710F0A61BB70B881F991F5A956C
:10084000A9F780959095BC01CD010895EE0FFF1F8B
:10085000881F8BBF0790F691E02D1994CF93DF93FB
:10086000CDB7DEB7AE014A5F5F4FFA01619171917A
:10087000AF01809145039091460316D0DF91CF914F
:100880000895CF93DF93CDB7DEB7AE014A5F5F4FD8
:10089000FA0161917191AF018091430390914403FA
:1008A00095D3DF91CF9108952F923F924F925F920F
:1008B0006F927F928F929F92AF92BF92CF92DF9270
:1008C000EF92FF920F931F93CF93DF9300D000D04E
:1008D00000D01F921F92CDB7DEB77C013B018A0189
:1008E000FC0117821682838181FFD0C1CE0101965F
:1008F0005C01F7019381F30193FD859193FF819151
:100900003F01882309F449C1853239F493FD85916B
:1009100093FF81913F01853221F4B70190E0BED46D
:10092000E8CF912C212C312CFFE1F31538F08B32DC
:1009300011F190F4803209F1833229F137FC3CC087
:1009400020ED280F2A3050F536FE20C08AE0989E10
:10095000200D1124922E06C08D3291F0803371F754
:10096000689430F8F30193FD859193FF81913F01E5
:100970008111DACF21C0689431F8689432F8F2CF4F
:10098000689433F8EFCF689434F8ECCFEAE02E9E09
:10099000200D1124222E689435F8E4CF8E3229F4EC
:1009A00036FCFBC0689436F8DDCF8C3619F46894B9
:1009B00037F8D8CF8836B1F2982F9F7D9554933071
:1009C000D8F0833691F18337B1F1833509F05EC0F9
:1009D0002801F2E04F0E511CF801C080D180692D32
:1009E00070E036FC02C06FEF7FEFC60105D44C010A
:1009F000689437F882010AC00C5F1F4FFFE3F98348
:100A000088248394912C6501E89437F833FE2AC03A
:100A1000522C8114910459F5552009F46ACFB7017D
:100A200080E290E03BD45A94F7CFF801808189832B
:100A30000E5F1F4FE5CF2801F2E04F0E511CF80169
:100A4000C080D180692D70E036FC02C06FEF7FEF6F
:100A5000C601DDD34C018201D7CFB70180E290E01F
:100A60001DD42A942814190409F0B8F7D1CFF6013F
:100A700037FC859137FE81916F01B70190E00ED46C
:100A800051105A94F1E08F1A9108C3CF843619F0AF
:100A9000893609F073C0F80137FE67C06081718143
:100AA000828193810C5F1F4FF32DFF763F2E97FFBE
:100AB00009C090958095709561957F4F8F4F9F4F9E
:100AC000689437F82AE030E0A50130D4C82ECA185F
:100AD0008C2C432C36FE0CC0E89440F8C91440F42A
:100AE00034FE05C032FC03C0F32DFE7E4F2E892C50
:100AF00044FEA6C0FE01EC0DF11D8081803309F09B
:100B000098C0242D297E422E842D8870582E43FCB7
:100B1000A5C040FE9FC09C2C821418F42C0C922C73
:100B2000981844FEA1C0B70180E390E0B7D342FE1D
:100B300008C088E790E041FE02C088E590E0B70178
:100B4000ADD3C91408F49CC0CA94D12C9FEFC91A24
:100B5000D90ACA0CDB1CF60182916F01B70190E043
:100B60009DD3AC14BD04B9F757CF60817181072EB6
:100B7000000C880B990B0E5F1F4F96CFD32CE89477
:100B8000D4F82AE030E08537E1F1232D297FD22EF9
:100B90008F36A9F1F0F4883551F1F70186819781FC
:100BA0002B960FB6F894DEBF0FBECDBFDF91CF916D
:100BB0001F910F91FF90EF90DF90CF90BF90AF907B
:100BC0009F908F907F906F905F904F903F902F906D
:100BD0000895803749F0883701F7D4FE02C0689441
:100BE000D2F820E130E00DC06894D4F8F6CF34FE9E
:100BF00003C0822F8660D82E20E132E002C028E0B8
:100C000030E0F801D7FE0EC060817181828193814E
:100C10000C5F1F4FA5018AD3C82ECA183D2CE8943B
:100C200037F856CF6081718190E080E00E5F1F4FF2
:100C3000F1CF42FC02C0839467CF8394839464CF46
:100C4000842D867809F460CFF6CFB70180E290E07A
:100C500025D383948214C8F3512C63CF522C581897
:100C6000821408F45ECFF8CF842D867809F469CF1A
:100C70008BE241FE80E247FC8DE2B70190E060CF5D
:100C8000B70180E390E00AD39A945BCF8FEF9FEF98
:100C900087CF20FD09C0FC0123FD05C022FF02C053
:100CA0007383628351834083089544FD17C046FDDA
:100CB0001DC0DB01FC01AA0FBB1FEE1FFF1F10941C
:100CC000D1F76A0F7B1F8E1F9F1F660F771F881F2C
:100CD000991F620F711D811D911D089533E0660FEC
:100CE000771F881F991F3150D1F7F3CF34E0F7CF2A
:100CF0000F931F93CF93DF938C01C80193D2EC0124
:100D000097FD06C071DD892BC1F7B801CE01F6D27F
:100D1000CE01DF91CF911F910F9108958F929F92F5
:100D2000AF92BF92EF92FF920F931F93CF93DF93F7
:100D30008C01D62F7A01B22E75D29C0133272B322B
:100D4000310529F02D323105A1F46894B7F8D1505E
:100D500061F480E0DF91CF911F910F91FF90EF90B0
:100D6000BF90AF909F908F900895C8015BD297FD80
:100D7000F0CFCB2DCD7F2B2D2073E9F48033D9F428
:100D8000AA24AA94AD0E79F0C8014CD297FD0BC0ED
:100D9000282F2F7D283559F4C264D25021F0C80184
:100DA00041D297FF08C0812C912C54011AC0B6FE85
:100DB00029C0C260DA2D812C912C540120ED280F1E
:100DC000283018F1C4FD09C02A30F8F0C6FF05C06C
:100DD0002F7D3FEE320F3630B8F0B8018FD2C1FF11
:100DE000B8CFC7FF08C0B094A09490948094811CA1
:100DF000911CA11CB11C2C2FB501A401C70149DF16
:100E000081E0A8CFC261D6CF27504C2FC501B401D5
:100E10004CDF4B015C01C260D15019F3C80102D212
:100E200097FFCCCFDCCF7F928F929F92AF92BF92F1
:100E3000CF92DF92EF92FF920F931F93CF93DF93A6
:100E4000CDB7DEB7A0970FB6F894DEBF0FBECDBF0B
:100E50005C01962E7A01CE0101966C0180E2F601CA
:100E600011928A95E9F7F501B381890130E020E01C
:100E7000712C812CA0E041E050E0F801B3FD859198
:100E8000B3FF8191982F8F01811117C010E000E00E
:100E9000C801A0960FB6F894DEBF0FBECDBFDF919C
:100EA000CF911F910F91FF90EF90DF90CF90BF9067
:100EB000AF909F908F907F9008958E3519F42115F3
:100EC000310541F1A21713064CF48D3549F18D32ED
:100ED00029F4811006C0882483941DC0882009F459
:100EE00062C0E92FE695E695E695EC0DFD2DF11D26
:100EF000892F8770BA0101C0660F8A95EAF7808151
:100F0000682B6083791651F0971510F49F5FE9CF35
:100F10009150E7CFA1E02F5F3F4FAFCF812CFBCFA8
:100F2000882019F08E8180628E83AA2359F0F60101
:100F30009E012F5D3F4F8081809580833196E2171F
:100F4000F307C9F788248394C5016CD197FD15C0B8
:100F5000E82FE695E695E695EC0DFD2DF11D208137
:100F600030E0AC014770552702C0359527954A956A
:100F7000E2F720FD05C0B501C1D1882069F086CF18
:100F8000E114F10429F0F7018083C70101967C0187
:100F90009A94812C9110D8CFE114F10409F478CF00
:100FA000F701108275CFE82FE695E695E695EC0DF2
:100FB000FD2DF11D982F9770BA0101C0660F9A950B
:100FC000EAF79081692B6083782EA5CF5F926F92AC
:100FD0007F928F929F92AF92BF92CF92DF92EF92C9
:100FE000FF920F931F93CF93DF936C01EB015A0194
:100FF000FC0117821682512CF601E380FE01E3FC0E
:101000008591E3FE8191182FEF018823C9F090E0CC
:10101000EBDB892B19F0C6016BDEEECF153241F404
:10102000FE01E3FC1591E3FE1191EF01153259F435
:10103000C601F8D097FD88C01817F1F2B6015ED14D
:10104000852D90E085C000E01A3231F4E3FC159163
:10105000E3FE1191EF0101E0F12C20ED210F2A3088
:1010600038F101FF34C0FF2059F3183699F11C36CE
:1010700009F43AC0112321F3612F70E084EE90E06F
:10108000B0D0892BE9F2912C812C00FD06C0F5012E
:1010900080809180C50102965C011E3669F5F601DB
:1010A0004681578170E060E0202FC401F2DDA4CFBB
:1010B00002606F2D70E090E080E040E2F6DDF62EF9
:1010C000FE01E3FC1591E3FE1191EF01C6CFFF2471
:1010D000FA94CBCFFE01E3FC1591E3FE1191EF01F1
:1010E000183609F0C7CF08600460FE01E3FC1591D3
:1010F000E3FE1191EF01BECF1336B9F401FD02C03A
:10110000FF24F394C6018ED097FD1EC08114910474
:1011100029F0F4018083C40101964C01FA94F11086
:10112000F1CF00FD69CF539467CF1B3509F59E01C0
:10113000A4016F2DC60177DEEC01892B91F7F60132
:101140008381807309F47CCF8FEF9FEF511078CFAC
:10115000DF91CF911F910F91FF90EF90DF90CF9093
:10116000BF90AF909F908F907F906F905F90089509
:10117000C601BEDD97FDE8CF1F3689F130F4143685
:1011800041F0193639F0006405C01337B1F0153756
:10119000D1F70062202FA4016F2DC601BFDD8111A0
:1011A000C0CFCDCF8114910429F0F4016082C40135
:1011B00001964C01FA94FF2059F0C60133D03C014E
:1011C00097FD06C011DB892B69F3B601C30196D0E8
:1011D0008114910409F4A5CFF4011082A2CF00611B
:1011E000D9CFFC010590061621F00020D9F7C001E7
:1011F00008953197CF010895FC010590615070402A
:101200000110D8F7809590958E0F9F1F0895FC01CF
:101210006150704001900110D8F7809590958E0F25
:101220009F1F0895CF93DF93EC012B8120FF1AC0FD
:1012300026FF0CC02F7B2B838E819F8101969F837D
:101240008E838A8190E0DF91CF91089522FF18C0AC
:10125000E881F9818081082E000C990B009729F410
:1012600020622B838FEF9FEFEECF3196F983E883D7
:101270002E813F812F5F3F4F3F832E839927E3CFFE
:10128000EA85FB85199597FFF3CF2B81019621F015
:1012900080E2822B8B83E6CF80E1FBCF0F931F93FD
:1012A000CF93DF93182F092FEB018B8181FD09C0AC
:1012B0001FEF0FEF812F902FDF91CF911F910F9193
:1012C000089582FF14C02E813F818C819D81281753
:1012D00039073CF4E881F981CF010196998388832D
:1012E00010838E819F8101969F838E83E3CFE88553
:1012F000F985812F1995892BA1F3DACFFB01238181
:1013000020FF11C026FD0FC08F3F980771F0828328
:101310002F7D206423832681378121503109378333
:101320002683992708958FEF9FEF0895FA01AA2742
:10133000283051F1203181F1E8946F936E7F6E5F18
:101340007F4F8F4F9F4FAF4FB1E03ED0B4E03CD0C6
:10135000670F781F891F9A1FA11D680F791F8A1FA9
:10136000911DA11D6A0F711D811D911DA11D20D010
:1013700009F468943F912AE0269F11243019305DCA
:101380003193DEF6CF010895462F4770405D4193BB
:10139000B3E00FD0C9F7F6CF462F4F70405D4A3308
:1013A00018F0495D31FD4052419302D0A9F7EACFD0
:1013B000B4E0A6959795879577956795BA95C9F7FF
:1013C00000976105710508959B01AC010A2E0694F2
:1013D0005795479537952795BA95C9F7620F731FAB
:0C13E000841F951FA01D0895F894FFCFF6
:1013EC000000000300000000C501A0010000000087
:1013FC0000003501A900D60081010701E500F900C4
:10140C00256400456D7066616E67656E3A202569CE
:10141C00202D2D2D2D3E20416E67657A65696774F0
:06142C003A2025690000D2
:020000023000CC
:10E000000D9489F10D94B2F10D94B2F10D94B2F129
:10E010000D94B2F10D94B2F10D94B2F10D94B2F1F0
:10E020000D94B2F10D94B2F10D94B2F10D94B2F1E0
:10E030000D94B2F10D94B2F10D94B2F10D94B2F1D0
:10E040000D94B2F10D94B2F10D94B2F10D94B2F1C0
:10E050000D94B2F10D94B2F10D94B2F10D94B2F1B0
:10E060000D94B2F10D94B2F10D94B2F10D94B2F1A0
:10E070000D94B2F10D94B2F10D94B2F10D94B2F190
:10E080000D94B2F10D94B2F10D94B2F10D94B2F180
:10E090000D94B2F10D94B2F10D94B2F10D94B2F170
:10E0A0000D94B2F10D94B2F10D94B2F10D94B2F160
:10E0B0000D94B2F10D94B2F10D94B2F10D94B2F150
:10E0C0000D94B2F10D94B2F10D94B2F10D94B2F140
:10E0D0000D94B2F10D94B2F10D94B2F10D94B2F130
:10E0E0000D94B2F141546D656761323536300041AF
:10E0F000726475696E6F206578706C6F72657220DE
:10E1000073746B3530305632206279204D4C530099
:10E11000426F6F746C6F616465723E004875683F52
:10E1200000436F6D70696C6564206F6E203D200048
:10E130004350552054797065202020203D20005FF9
:10E140005F4156525F415243485F5F3D2000415658
:10E1500052204C696243205665723D20004743437C
:10E160002056657273696F6E203D20004350552024
:10E1700049442020202020203D20004C6F7720663D
:10E18000757365202020203D20004869676820665F
:10E190007573652020203D200045787420667573D6
:10E1A00065202020203D20004C6F636B2066757336
:10E1B000652020203D20004D617220203720323024
:10E1C000313300312E362E3800342E332E350056A2
:10E1D00023202020414444522020206F7020636F70
:10E1E00064652020202020696E73747275637469E1
:10E1F0006F6E2061646472202020496E74657272B3
:10E20000757074006E6F20766563746F7200726A49
:10E210006D702020006A6D70200057686174207056
:10E220006F72743A00506F7274206E6F7420737541
:10E2300070706F72746564004D7573742062652030
:10E2400061206C6574746572002000577269747483
:10E25000696E672045450052656164696E672045B7
:10E26000450045452065727220636E743D00504F35
:10E27000525400303D5A65726F2061646472003FF1
:10E280003D43505520737461747300403D454550C3
:10E29000524F4D207465737400423D426C696E6B41
:10E2A000204C454400453D44756D70204545505215
:10E2B0004F4D00463D44756D7020464C415348001B
:10E2C000483D48656C70004C3D4C69737420492F83
:10E2D0004F20506F72747300513D51756974005234
:10E2E0003D44756D702052414D00563D73686F7707
:10E2F00020696E7465727275707420566563746FF0
:10E30000727300593D506F727420626C696E6B00BD
:10E310002A0011241FBECFEFD1E2DEBFCDBF01E046
:10E320000CBF12E0A0E0B2E0EEE1FDEF03E00BBFB6
:10E3300002C007900D92A030B107D9F712E0A0E01B
:10E34000B2E001C01D92AE30B107E1F70F9460F367
:10E350000D948DFE01E20EBF0FEF0DBF11241FBE05
:10E360000D9460F30D9400F020E030E040ED57E0B4
:10E3700005C0FA013197F1F72F5F3F4F2817390792
:10E38000C0F308959C01260F311DC901A0E0B0E043
:10E390002F5F3F4FABBFFC018791882361F08093D3
:10E3A000C6008091C00086FFFCCF8091C0008064D1
:10E3B0008093C000EACF08958DE08093C6008091DD
:10E3C000C00086FFFCCF8091C00080648093C000B5
:10E3D0008AE08093C6008091C00086FFFCCF8091C8
:10E3E000C00080648093C00008950F94C2F10F9420
:10E3F000DCF10895FC019081992359F09093C600B7
:10E400008091C00086FFFCCF8091C0008064809323
:10E41000C0003196992379F70895282F982F929567
:10E420009F70892F805D8A3308F0895F8093C600D2
:10E430008091C00086FFFCCF8091C00080648093F3
:10E44000C000822F8F70982F905D9A3308F0995FEB
:10E450009093C6008091C00086FFFCCF8091C000E1
:10E4600080648093C00008959C01FB01853691056E
:10E470001CF46330710594F0C90164E670E00F94F8
:10E480002EFE605D7F4F6093C6008091C00086FFC6
:10E49000FCCF8091C00080648093C0002B30310598
:10E4A00014F43297B4F0C90164E670E00F942EFEC4
:10E4B0006AE070E00F942EFE605D7F4F6093C600AF
:10E4C0008091C00086FFFCCF8091C0008064809363
:10E4D000C000C9016AE070E00F942EFEC0968093E0
:10E4E000C6008091C00086FFFCCF8091C000806490
:10E4F0008093C00008951F93182F8EE692EE60E07F
:10E500000F94C2F11093C6008091C00086FFFCCF2B
:10E510008091C00080648093C0000F94DCF11F9153
:10E5200008952F923F924F925F926F927F928F92B7
:10E530009F92AF92BF92CF92DF92EF92FF920F9392
:10E540001F93DF93CF93CDB7DEB762970FB6F894E2
:10E55000DEBF0FBECDBF382E622ECA01DB015C01CB
:10E560006D01772420E2222E2E010894411C511CBB
:10E570008BC081E0A81680E0B80681E0C80680E084
:10E58000D80628F0C601AA27BB270F940DF2BB2797
:10E59000AD2D9C2D8B2D0F940DF28A2D0F940DF225
:10E5A0002092C6008091C00086FFFCCF8091C00001
:10E5B00080648093C0009DE29093C6008091C0006B
:10E5C00086FFFCCF8091C00080648093C0002092C1
:10E5D000C6008091C00086FFFCCF8091C00080649F
:10E5E0008093C00019828601750188249924A1E0D6
:10E5F0003A1651F03A1620F0B2E03B1661F409C029
:10E600000BBFF701779007C0C7010F9477FE782EF4
:10E6100002C0F7017080872D0F940DF22092C60082
:10E620008091C00086FFFCCF8091C0008064809301
:10E63000C000872D8052F401EF70F0708F3520F408
:10E64000E40DF51D708204C0E40DF51D8EE280839B
:10E650000894E11CF11C011D111D0894811C911CE2
:10E6600090E18916910409F0C2CF80E190E0A0E02A
:10E67000B0E0A80EB91ECA1EDB1E198AC2010F9493
:10E68000FAF10F94DCF16A94662009F072CF629679
:10E690000FB6F894DEBF0FBECDBFCF91DF911F91B3
:10E6A0000F91FF90EF90DF90CF90BF90AF909F9031
:10E6B0008F907F906F905F904F903F902F90089534
:10E6C0002F923F924F925F926F927F928F929F9282
:10E6D000AF92BF92CF92DF92EF92FF920F931F9370
:10E6E000DF93CF93CDB7DEB7CD53D1400FB6F894BB
:10E6F000DEBF0FBECDBF01E20EBF0FEF0DBF94B75F
:10E70000F894A89514BE80916000886180936000A1
:10E7100010926000789493FF05C0E0910002F091A0
:10E7200001021995279A2F9A8091C00082608093E8
:10E73000C00080E18093C40088E18093C1000000A4
:10E74000EE24FF24870144E0A42EB12CCC24DD2448
:10E7500024C0C5010197F1F70894E11CF11C011DCB
:10E76000111D21E2E2162EE4F20620E0020720E06D
:10E77000120718F031E0C32ED12CC801B70127ECE5
:10E780003BE140E050E00F9441FE611571058105C9
:10E79000910519F485B1805885B98091C00087FD35
:10E7A00003C0C114D104A9F2A6014F5F5F4FC25E3E
:10E7B000DE4F59834883CE51D140C25EDE4F8881FF
:10E7C0009981CE51D140019711F00D9410FEC05D9A
:10E7D000DE4F19821882C053D14060E0C15DDE4F28
:10E7E0001882CF52D14088249924C35DDE4F19820C
:10E7F0001882CD52D140C05EDE4F188219821A8233
:10E800001B82C052D140CE5CDE4F188219821A8220
:10E810001B82C253D140EE24FF2487010BBFF701B6
:10E8200007911691C45CDE4F19830883CC53D14005
:10E830000D940BFEC25EDE4F28813981CE51D1404E
:10E840002130310509F52091C600C25EDE4F1982E4
:10E850001882CE51D14022C02F5F3F4F4F4F5F4FA4
:10E86000213082E138078AE7480780E0580780F0C6
:10E87000C45CDE4FE881F981CC53D140EF5FFF4F9C
:10E8800019F0EE27FF27099420E030E040E050E047
:10E890008091C00087FFE0CF2091C600C35DDE4FAE
:10E8A00048815981CD52D1404F5F5F4FC35DDE4FEC
:10E8B00059834883CD52D140213209F063C64A3092
:10E8C000510508F05FC60894811C911C53E0851621
:10E8D000910409F059C600E010E018C081E280936D
:10E8E000C6008091C00086FFFCCF8091C00080648C
:10E8F0008093C0002F5F3F4F2931310579F70F9486
:10E90000DCF10F5F1F4F0530110519F020E030E0FA
:10E91000E5CF10920A0210920B0210920C02109294
:10E920000D02109206021092070210920802109235
:10E930000902109202021092030210920402109235
:10E9400005028FEE90EE60E00F94F5F180E191EE1C
:10E9500060E00F94C2F18091C00087FFFCCF9091DE
:10E96000C600903608F09F759032B8F09093C600BC
:10E970008091C00086FFFCCF8091C00080648093AE
:10E98000C000A0E2A093C6008091C00086FFFCCF2B
:10E990008091C00080648093C000983409F4D7C18E
:10E9A0009934B8F4923409F459C1933458F490333B
:10E9B00019F1903308F4E3C59F33A1F1903409F0C5
:10E9C000DEC5BDC0953409F470C1963409F0D7C5D1
:10E9D00098C1923509F42BC2933538F49C3409F46C
:10E9E000F5C1913509F0CBC518C2963509F445C279
:10E9F000993509F0C4C567C483E792EE62E00F94CD
:10EA0000F5F110920602109207021092080210927D
:10EA1000090210920A0210920B0210920C0210923C
:10EA20000D0213C18FE792EE62E00F94F5F18FEEC5
:10EA300090EE60E00F94F5F181E291EE60E00F94CA
:10EA4000C2F187EB91EE60E00F94F5F180E391EE77
:10EA500060E00F94C2F184EE90EE60E00F94F5F167
:10EA60008FE391EE60E00F94C2F186E090E061E008
:10EA700070E00F9434F20F94DCF18DE591EE60E0DC
:10EA80000F94C2F189EC91EE60E00F94F5F18EE401
:10EA900091EE60E00F94C2F183EC91EE60E00F9490
:10EAA000F5F18CE691EE60E00F94C2F18EE10F94E7
:10EAB0000DF288E90F940DF281E00F940DF20F949E
:10EAC000DCF18BE791EE60E00F94C2F119E0E0E039
:10EAD000F0E010935700E4918E2F0F940DF20F94F5
:10EAE000DCF18AE891EE60E00F94C2F1E3E0F0E03F
:10EAF00010935700E4918E2F0F940DF20F94DCF1D8
:10EB000089E991EE60E00F94C2F1E2E0F0E0109349
:10EB10005700E4918E2F0F940DF20F94DCF188EAE8
:10EB200091EE60E00F94C2F1E1E0F0E01093570045
:10EB30001491812F0F940DF20F94DCF107CF8BE825
:10EB400092EE62E00F94F5F18BE492EE60E00F94A8
:10EB5000F5F10F94DCF100E010E019C0C8016F2D51
:10EB60000F947FFEFF2031F489E492EE60E00F9471
:10EB7000C2F10BC0F092C6008091C00086FFFCCFAE
:10EB80008091C00080648093C0000F5F1F4FC80158
:10EB900081519F41A0E0B0E0ABBFFC01F790BAE229
:10EBA000FB1621F0E2E000301E07C1F60F94DCF105
:10EBB0000F94DCF187E592EE60E00F94F5F10F948D
:10EBC000DCF1CC24DD2400E010E01EC0C8010F946D
:10EBD00077FEF82E882331F489E492EE60E00F94FA
:10EBE000C2F10BC08093C6008091C00086FFFCCFAD
:10EBF0008091C00080648093C000FE1419F00894D6
:10EC0000C11CD11C0F5F1F4FC80181519F41A0E063
:10EC1000B0E0ABBFFC01E790FAE2EF1621F022E092
:10EC20000030120799F60F94DCF10F94DCF182E6C4
:10EC300092EE60E00F94C2F1C60161E070E00F94C3
:10EC400034F20F94DCF10F94DCF110920202109276
:10EC50000302109204021092050278CE89E992EE26
:10EC600062E00F94F5F1279A2F9A16C02F9880E052
:10EC700090E0E0EDF7E03197F1F7019684369105E9
:10EC8000C1F72F9A80E090E0E0EDF7E03197F1F7DF
:10EC9000019684369105C1F78091C00087FFE6CFC9
:10ECA0008091C00087FFFCCF64C485EA92EE62E0E9
:10ECB0000F94F5F140910202509103026091040219
:10ECC0007091050281E020E10F9491F2809102029F
:10ECD00090910302A0910402B091050280509F4FD1
:10ECE000AF4FBF4F8093020290930302A0930402A0
:10ECF000B093050280509041A040B04008F426CE69
:10ED0000A4CF83EB92EE62E00F94F5F140910602FE
:10ED100050910702609108027091090280E020E1A1
:10ED20000F9491F28091060290910702A09108023F
:10ED3000B091090280509F4FAF4FBF4F80930602A2
:10ED400090930702A0930802B0930902FFCD80ECD4
:10ED500092EE62E00F94F5F183E792EE60E00F949B
:10ED6000F5F18FE792EE60E00F94F5F18BE892EE0B
:10ED700060E00F94F5F189E992EE60E00F94F5F10F
:10ED800085EA92EE60E00F94F5F183EB92EE60E09D
:10ED90000F94F5F180EC92EE60E00F94F5F187ECC2
:10EDA00092EE60E00F94F5F188ED92EE60E00F9442
:10EDB000F5F18FED92EE60E00F94F5F18AEE92EEB0
:10EDC00060E00F94F5F183E093EEBDCD87EC92EE19
:10EDD00062E00F94F5F181E40F947BF282E40F94EA
:10EDE0007BF283E40F947BF284E40F947BF285E45E
:10EDF0000F947BF286E40F947BF287E40F947BF20E
:10EE000088E40F947BF28AE40F947BF28BE40F94F6
:10EE10007BF28CE40F947BF299CD88ED92EE62E068
:10EE20000F94F5F1772473948824992409C48FED05
:10EE300092EE62E00F94F5F140910A0250910B02BC
:10EE400060910C0270910D0282E020E10F9491F22A
:10EE500080910A0290910B02A0910C02B0910D02D8
:10EE600080509F4FAF4FBF4F80930A0290930B0289
:10EE7000A0930C02B0930D0269CD8AEE92EE62E08F
:10EE80000F94F5F184EE90EE60E00F94F5F18FECC5
:10EE900091EE60E00F94F5F1662477244301CC5D98
:10EEA000DE4F19821882C452D140D401C301B695F5
:10EEB000A79597958795CA5DDE4F88839983AA8326
:10EEC000BB83C652D140CC5DDE4FA881B981C4520C
:10EED000D1401196CC5DDE4FB983A883C452D14096
:10EEE000CD0162E070E00F9434F2B0E2B093C6005E
:10EEF0008091C00086FFFCCF8091C0008064809329
:10EF0000C000EDE2E093C6008091C00086FFFCCF18
:10EF10008091C00080648093C000F0E2F093C6004E
:10EF20008091C00086FFFCCF8091C00080648093F8
:10EF3000C000CA5DDE4FE880F9800A811B81C6529D
:10EF4000D140BB27A12F902F8F2D0F940DF2CA5DBA
:10EF5000DE4F8881C652D1400F940DF2B0E2FB2EF5
:10EF6000F092C6008091C00086FFFCCF8091C00067
:10EF700080648093C0000DE30093C6008091C000C0
:10EF800086FFFCCF8091C00080648093C00010E2B7
:10EF90001093C6008091C00086FFFCCF8091C00016
:10EFA00080648093C0008BBEF3012791C65DDE4F65
:10EFB0002883CA52D140A22EBB24CC24DD2408943D
:10EFC000611C711C811C911C8BBEF3018791282E42
:10EFD0003324442455240894611C711C811C911C09
:10EFE0008BBEF3013791C55DDE4F3883CB52D140E4
:10EFF0000894611C711C811C911C8BBEF30147910C
:10F00000C45DDE4F4883CC52D140ADEFEA2EAFEF66
:10F01000FA2EAFEF0A2FAFEF1A2F6E0C7F1C801E57
:10F02000911E142D032DF22CEE24EA0CFB1C0C1D5A
:10F030001D1D0F940DF220E22093C6008091C000A8
:10F0400086FFFCCF8091C00080648093C000C65DC5
:10F05000DE4F8881CA52D1400F940DF230E23093D6
:10F06000C6008091C00086FFFCCF8091C000806404
:10F070008093C000C45DDE4F8881CC52D1400F9494
:10F080000DF240E24093C6008091C00086FFFCCFA5
:10F090008091C00080648093C000C55DDE4F888190
:10F0A000CB52D1400F940DF250E25093C6008091A4
:10F0B000C00086FFFCCF8091C00080648093C000B8
:10F0C0008FEFE8168FEFF80680E0080780E018075A
:10F0D00031F484E092EE60E00F94C2F1DFC0D80119
:10F0E000C7018070907CA070B0708050904CA040A0
:10F0F000B040D1F52FEF3FE340E050E0E222F322B1
:10F1000004231523CA5DDE4FA880B980CA80DB8046
:10F11000C652D140AE0CBF1CC01ED11EAA0CBB1CD7
:10F12000CC1CDD1C8EE092EE60E00F94C2F1BB2798
:10F13000A12F902F8F2D0F940DF28E2D0F940DF285
:10F1400030E23093C6008091C00086FFFCCF8091F2
:10F15000C00080648093C0004EE34093C60080915D
:10F16000C00086FFFCCF87C08EE09EEFA0E0B0E03D
:10F17000E822F9220A231B239CE0E91694E9F90608
:10F1800090E0090790E0190709F088C0C45DDE4FE0
:10F19000A881CC52D140EA2EFF2400E010E0102FCD
:10F1A0000F2DFE2CEE24C55DDE4FB881CB52D14031
:10F1B000EB0EF11C011D111DD601C501817090706F
:10F1C000A070B070DC0199278827E80EF91E0A1F8D
:10F1D0001B1F20EF30E040E050E0A222B322C42207
:10F1E000D52241E1AA0CBB1CCC1CDD1C4A95D1F7F1
:10F1F000EA0CFB1C0C1D1D1D81E090E0A0E0B0E0BE
:10F20000282239224A225B2235E1220C331C441C7D
:10F21000551C3A95D1F7E20CF31C041D151D57013E
:10F220006801AA0CBB1CCC1CDD1C85E192EE60E0E1
:10F230000F94C2F1C801AA27BB270F940DF2BB2778
:10F24000A12F902F8F2D0F940DF28E2D0F940DF274
:10F2500090E29093C6008091C00086FFFCCF809121
:10F26000C00080648093C000AEE3A093C60080918C
:10F27000C00086FFFCCF8091C00080648093C000F6
:10F28000C601AA27BB270F940DF2BB27AD2D9C2DDD
:10F290008B2D0F940DF28A2D0F940DF20F94DCF14B
:10F2A000CC5DDE4FE881F981C452D140F99709F471
:10F2B0004DCBF4E0EF2EF12C012D112D6E0C7F1CA7
:10F2C000801E911EF2CD83E093EE62E00F94F5F183
:10F2D0008AE192EE60E00F94C2F18091C00087FF56
:10F2E000FCCF1091C6001F751093C6008091C0001E
:10F2F00086FFFCCF8091C00080648093C0000F9493
:10F30000DCF1812F81548A3108F036C1163409F4BA
:10F3100095C0173490F4133409F44EC0143430F40B
:10F320001134F1F0123409F01DC130C0143409F465
:10F3300059C0153409F016C16BC01A3409F4C4C0A1
:10F340001B3438F4173409F48FC0183409F00AC19B
:10F35000A1C01B3409F4D2C01C3409F003C1E8C0B9
:10F360008FEF81B90DC082B1809582B980E090E0C5
:10F37000E0EDF7E03197F1F70196883C9105C1F790
:10F380008091C00087FFEFCF12B8EFC08FEF84B934
:10F390000DC085B1809585B980E090E0E0EDF7E0A3
:10F3A0003197F1F70196883C9105C1F78091C00033
:10F3B00087FFEFCF15B8D9C08FEF87B90DC088B1DF
:10F3C000809588B980E090E0E0EDF7E03197F1F7C3
:10F3D0000196883C9105C1F78091C00087FFEFCF6F
:10F3E00018B8C3C08FEF8AB90DC08BB180958BB9A7
:10F3F00080E090E0E0EDF7E03197F1F70196883C8E
:10F400009105C1F78091C00087FFEFCF1BB8ADC059
:10F410008FEF8DB90DC08EB180958EB980E090E0F0
:10F42000E0EDF7E03197F1F70196883C9105C1F7DF
:10F430008091C00087FFEFCF1EB897C08FEF80BBD1
:10F440000DC081B3809581BB80E090E0E0EDF7E0F6
:10F450003197F1F70196883C9105C1F78091C00082
:10F4600087FFEFCF11BA81C08FEF83BB0DC084B38C
:10F47000809584BB80E090E0E0EDF7E03197F1F714
:10F480000196883C9105C1F78091C00087FFEFCFBE
:10F4900014BA6BC08FEF809301010FC080910201FD
:10F4A00080958093020180E090E0E0EDF7E03197F5
:10F4B000F1F70196883C9105C1F78091C00087FF64
:10F4C000EDCF1092020151C08FEF809304010FC065
:10F4D0008091050180958093050180E090E0E0ED4A
:10F4E000F7E03197F1F70196883C9105C1F78091DB
:10F4F000C00087FFEDCF1092050137C08FEF8093DA
:10F5000007010FC08091080180958093080180E079
:10F5100090E0E0EDF7E03197F1F70196883C910536
:10F52000C1F78091C00087FFEDCF109208011DC088
:10F530008FEF80930A010FC080910B01809580931B
:10F540000B0180E090E0E0EDF7E03197F1F70196F4
:10F55000883C9105C1F78091C00087FFEDCF1092E4
:10F560000B0103C085E292EEEEC98091C00087FFD7
:10F57000FCCF8091C600EAC988E392EEE4C98CE131
:10F5800091EEE1C988249924933011F1943028F444
:10F59000913089F09230B8F408C0953061F195301F
:10F5A000F0F0963009F048C043C02B3109F042C951
:10F5B00091E06BE13FC96227C15DDE4F2883CF52E6
:10F5C000D14092E037C9B22FA0E0622793E032C960
:10F5D000822F90E0A82BB92B622794E02BC92E3004
:10F5E00009F039C3622795E0C05DDE4F19821882A9
:10F5F000C053D1401FC9E1E0F0E0EC0FFD1FC05D3A
:10F60000DE4F08811981C053D140E00FF11F2083E4
:10F610000F5F1F4FC05DDE4F19830883C053D14079
:10F6200062270A171B0709F005C9D80196E002C92D
:10F63000261709F010C303C0973009F0FBC87724E0
:10F640009981933109F412C19431C8F4963009F4C8
:10F65000D8C0973050F4923009F406C1933009F4C1
:10F660006DC0913009F059C253C0913109F477C08F
:10F67000923108F0BBC0903109F04FC2F5C098310B
:10F6800009F487C0993150F4953109F4EFC09531F0
:10F6900008F4C6C1963109F040C2C2C19A3109F4DA
:10F6A0006CC09A3108F491C09B3109F45BC09D3164
:10F6B00009F033C29D81903359F48F81882311F46E
:10F6C0009EE11CC0813011F091E018C098E916C08D
:10F6D000892F807591F0903539F4E0E0F0E089E011
:10F6E0008093570094910AC0983539F4E3E0F0E034
:10F6F00089E080935700949101C090E01A821B82A8
:10F700008D818C831D829E831F8227E030E009C299
:10F710001A8288E08B8381E48C8386E58D8382E581
:10F720008E8389E48F8383E5888780E589878FE5E9
:10F730008A8782E38B872BE030E0F3C18A818139AD
:10F7400041F0823941F0803911F48FE005C080E04A
:10F7500003C082E001C08AE01A828B8344C0772410
:10F76000739482C08D81882311F48EE12CC0813086
:10F7700011F081E028C088E926C01A82E1E0F0E0BB
:10F7800089E08093570084918B831C8224E030E0D1
:10F79000C8C18B81803589F48C81883039F4E2E0EE
:10F7A000F0E089E08093570084910DC0E0E0F0E044
:10F7B00089E080935700849106C0E3E0F0E089E09F
:10F7C0008093570084911A82DFCF8D81836C99E0FA
:10F7D000E1E0F0E0082E90935700E89507B600FCB2
:10F7E000FDCF1A821B8223E030E09BC180EC8A832C
:10F7F000CE5CDE4F188219821A821B82C253D1401E
:10F800008EC18A8190E0A0E0B0E0582F44273327D2
:10F8100022278B8190E0A0E0B0E0DC0199278827C7
:10F82000282B392B4A2B5B2B8D8190E0A0E0B0E098
:10F83000282B392B4A2B5B2B8C8190E0A0E0B0E089
:10F84000BA2FA92F982F8827282B392B4A2B5B2BCF
:10F85000220F331F441F551FC05EDE4F288339839C
:10F860004A835B83C052D1401A8259C13A81C95C34
:10F87000DE4F3883C753D140CA5CDE4F1882C6536F
:10F88000D1408B81C82EDD24CA5CDE4F488159816E
:10F89000C653D140C42AD52A933109F082C0CE5C28
:10F8A000DE4F88819981AA81BB81C253D1408050AB
:10F8B000904CA340B04030F583E0CE5CDE4FE88052
:10F8C000F9800A811B81C253D140F70100935B008C
:10F8D00080935700E89507B600FCFDCFCE5CDE4F65
:10F8E000088119812A813B81C253D14000501F4FAA
:10F8F0002F4F3F4FCE5CDE4F088319832A833B8313
:10F90000C253D140C05EDE4F488159816A817B81FC
:10F91000C052D140DE011B9631E08C9111962C91A2
:10F9200011971296C75CDE4F2883C953D140C85C3B
:10F93000DE4F1882C853D14090E0C85CDE4FE881AA
:10F94000F981C853D1408E2B9F2B0C01FA01609393
:10F950005B0030935700E89511244E5F5F4F6F4F67
:10F960007F4F0EEFE02E0FEFF02ECE0CDF1CC114F8
:10F97000D10499F685E0C05EDE4F088119812A81A5
:10F980003B81C052D140F80120935B008093570027
:10F99000E89507B600FCFDCF81E180935700E8951C
:10F9A00035C0C05EDE4F88819981AA81BB81C0527B
:10F9B000D140B695A795979587957C018601ABE0D8
:10F9C000AA2EB12CAC0EBD1E0BC0D5016D915D01F0
:10F9D000C7010F947FFE0894E11CF11C01501040F8
:10F9E0000115110591F7A60160E070E0440F551F65
:10F9F000661F771FC05EDE4FE880F9800A811B8199
:10FA0000C052D1404E0D5F1D601F711F1A82C05E33
:10FA1000DE4F488359836A837B83C052D1407FC0C5
:10FA2000FA80C55CDE4FF882CB53D140C65CDE4F16
:10FA30001882CA53D1408B81C82EDD24C65CDE4FAC
:10FA400008811981CA53D140C02AD12A1A828981DA
:10FA5000BE016D5F7F4F843121F59601C05EDE4FA0
:10FA6000E880F9800A811B81C052D1400BBFF701A9
:10FA700087919691DB018C9311969C936E5F7F4FDB
:10FA8000D801C7010296A11DB11DC05EDE4F88835B
:10FA90009983AA83BB83C052D14022503040F1F6F3
:10FAA00036C0C05EDE4F288139814A815B81C052F9
:10FAB000D1400894C108D108760100E010E0089414
:10FAC000C11CD11C0894E11CF11C011D111DE20E8A
:10FAD000F31E041F151F21BDBB27A52F942F832FB5
:10FAE00082BD2F5F3F4F4F4F5F4FF89A80B5DB01CC
:10FAF0008D93BD012E153F054007510761F7C05E8C
:10FB0000DE4F288339834A835B83C052D1409601FC
:10FB10002D5F3F4FFB01108204C080EC8A8322E0FE
:10FB200030E08BE18093C6008091C00086FFFCCF5F
:10FB30008091C00080648093C000C15DDE4FF88179
:10FB4000CF52D140F093C6008091C00086FFFCCF19
:10FB50008091C00080648093C000432F3093C60022
:10FB60008091C00086FFFCCF8091C00080648093AC
:10FB7000C000922F2093C6008091C00086FFFCCF6A
:10FB80008091C00080648093C0008EE08093C600A6
:10FB90008091C00086FFFCCF8091C000806480937C
:10FBA000C00065E1C15DDE4FE880CF52D1406E25D7
:10FBB00069276427FE01319610C090819093C6009A
:10FBC0008091C00086FFFCCF31968091C000806498
:10FBD0008093C0006927215030402115310569F715
:10FBE0006093C6008091C00086FFFCCF8091C0006A
:10FBF00080648093C00085B1805885B9772081F4F6
:10FC0000C15DDE4F0881CF52D1400F5FC15DDE4F35
:10FC10000883CF52D14090E0A0E0B0E00D941AF4F8
:10FC200027982F9880E090E020ED37E0F901319798
:10FC3000F1F7019684369105C9F700008091C00064
:10FC40008D7F8093C00081E180935700E895EE2777
:10FC5000FF270994FFCF90E00D941AF497FB092E2B
:10FC600007260AD077FD04D02ED006D000201AF443
:10FC7000709561957F4F0895F6F7909581959F4F08
:10FC80000895A1E21A2EAA1BBB1BFD010DC0AA1FDD
:10FC9000BB1FEE1FFF1FA217B307E407F50720F0F5
:10FCA000A21BB30BE40BF50B661F771F881F991F70
:10FCB0001A9469F760957095809590959B01AC01B9
:10FCC000BD01CF010895AA1BBB1B51E107C0AA1FAC
:10FCD000BB1FA617B70710F0A61BB70B881F991FED
:10FCE0005A95A9F780959095BC01CD010895F99991
:10FCF000FECF92BD81BDF89A992780B50895262F31
:10FD0000F999FECF1FBA92BD81BD20BD0FB6F89400
:0EFD1000FA9AF99A0FBE01960895F894FFCF63
:040000033000E000E9
:00000001FF