:1000000078C00000A5C00000A3C00000A1C000008F
:100010009FC000009DC000009BC0000099C0000070
:1000200097C0000095C0000093C0000091C0000080
:100030008FC000008DC000008BC0000089C0000090
:1000400087C0000085C0000083C0000081C00000A0
:100050007FC000007DC000007BC000002FC20000F8
:1000600077C00000F5C10000CAC1000071C00000E7
:100070006FC000006DC000006BC0000069C00000D0
:1000800067C0000065C0000063C0000061C00000E0
:100090005FC000005DC000005BC0000059C00000F0
:1000A00057C0000055C0000053C0000051C0000000
:1000B0004FC000004DC000004BC0000049C0000010
:1000C00047C0000045C0000043C0000041C0000020
:1000D0003FC000003DC000003BC0000039C0000030
:1000E00037C000006364696E6F70737578585B0089
:1000F000A80211241FBECFEFD1E2DEBFCDBF00E0CA
:100100000CBF23E0A6E4B2E001C01D92A934B207FF
:10011000E1F712E0A0E0B2E0ECEEF3E100E00BBFAB
:1001200002C007900D92A634B107D9F710E0C9E7D5
:10013000D0E000E005C021970109802FFE0186D3A1
:10014000C837D10780E00807B1F741D20C94F40911
:1001500057CFAF92BF92CF92DF92EF92FF920F9361
:100160001F93CF93DF936C017B018B01040F151F4D
:10017000EB015E01AE18BF08C017D10759F06991B5
:10018000D601ED91FC910190F081E02DC601199509
:10019000892B79F7C501DF91CF911F910F91FF90C6
:1001A000EF90DF90CF90BF90AF900895FC01538DFA
:1001B000448D252F30E0842F90E0821B930B541741
:1001C00010F0CF96089501970895FC01918D828DCE
:1001D000981761F0A28DAE0FBF2FB11D5D968C9167
:1001E000928D9F5F9F73928F90E008958FEF9FEFA6
:1001F0000895FC01918D828D981731F0828DE80F62
:10020000F11D858D90E008958FEF9FEF0895FC011B
:10021000918D228D892F90E0805C9F4F821B9109E8
:100220008F7399270895FC01A48DA80FB92FB11DD4
:10023000A35ABF4F2C91848D90E001968F7399271C
:10024000848FA689B7892C93A089B1898C918370FA
:1002500080648C93938D848D981306C00288F389F3
:10026000E02D80818F7D80830895EF92FF920F9320
:100270001F93CF93DF93EC0181E0888F9B8D8C8D52
:1002800098131AC0E889F989808185FF15C09FB746
:10029000F894EE89FF896083E889F9898081837009
:1002A000806480839FBF81E090E0DF91CF911F91B8
:1002B0000F91FF90EF900895F62E0B8D10E00F5FD9
:1002C0001F4F0F731127E02E8C8D8E110BC00FB6B0
:1002D00007FCFACFE889F989808185FFF5CFCE0147
:1002E000A2DFF2CFEB8DEC0FFD2FF11DE35AFF4F94
:1002F000F0829FB7F8940B8FEA89FB898081806236
:10030000D0CFCF93DF93EC01888D8823B1F0AA89F9
:10031000BB89E889F9898C9185FD03C0808186FDC0
:100320000CC00FB607FCF7CF8C9185FFF2CF808110
:1003300085FFEDCFCE0177DFEACFDF91CF91089532
:1003400080915602823099F0833049F08130B1F4C7
:100350008091C80087FFFCCF8091CE0006C08091BD
:10036000300187FFFCCF8091360190E008958091A5
:10037000D00087FFFCCF8091D600F7CF8091C000DE
:1003800087FFFCCF8091C600F0CFCF93C82F80911C
:1003900056028230F1F0833069F0813029F5CA309D
:1003A00011F48DE0F2DF8091C80085FFFCCFC0938F
:1003B000CE000AC0CA3011F48DE0E7DF8091300131
:1003C00085FFFCCFC09336018C2FCC0F990BCF91BA
:1003D0000895CA3011F48DE0D8DF8091D00085FFF8
:1003E000FCCFC093D600F0CFCA3011F48DE0CDDF42
:1003F0008091C00085FFFCCFC093C600E5CF1F925F
:100400000F920FB60F9211240BB60F922F933F93BA
:100410004F935F936F937F938F939F93AF93BF930C
:10042000EF93FF9380E692E0FEDEFF91EF91BF91A4
:10043000AF919F918F917F916F915F914F913F917C
:100440002F910F900BBE0F900FBE0F901F9018951D
:100450001F920F920FB60F9211240BB60F922F938B
:100460008F939F93EF93FF93E0917002F09171024D
:100470008081E0917602F091770282FD1DC090812B
:10048000809179028F5F8F7320917A02821741F0F9
:10049000E0917902F0E0E05AFD4F958F8093790268
:1004A000FF91EF919F918F912F910F900BBE0F9025
:1004B0000FBE0F901F9018958081F2CF1F920F9260
:1004C0000FB60F9211242F933F938F939F93AF9367
:1004D000BF9380915C0290915D02A0915E02B09109
:1004E0005F0230915B0223E0230F2D3758F5019610
:1004F000A11DB11D20935B0280935C0290935D026D
:10050000A0935E02B0935F028091570290915802CF
:10051000A0915902B0915A020196A11DB11D80937C
:10052000570290935802A0935902B0935A02BF9178
:10053000AF919F918F913F912F910F900FBE0F9090
:100540001F90189526E8230F0296A11DB11DD2CF4A
:10055000E0E6F2E01382128288EE93E0A0E0B0E0E1
:1005600084839583A683B78382E192E0918380831D
:1005700085EC90E09587848784EC90E09787868768
:1005800080EC90E0918B808B81EC90E0938B828B60
:1005900082EC90E0958B848B86EC90E0978B868B39
:1005A000118E128E138E148EEDEFF2E016821782EA
:1005B000108611861286138614861586168617866F
:1005C000108A118A128A138A148A158A0895CF9381
:1005D000DF931F921F92CDB7DEB78FEF81B91092D4
:1005E000560280E092E090934403809343039093FB
:1005F0004603809345031092C0001092C50087E621
:100600008093C40088E18093C10086E08093C2009B
:100610001A821982F12CE12C9E012F5F3F4F490174
:1006200090E2692E92E0792EA12CBB24B39433E2A0
:10063000C32E32E0D32E55245A949F928F927F92EC
:100640006F921FD129813A81C901B501D8D08C019F
:100650001F938F933F932F93DF92CF92FFD0898187
:100660009A810FB6F894DEBF0FBECDBF8E159F05E1
:1006700081F11092470210924602109249021092A4
:10068000480210924B0210924A0210924D021092B0
:100690004C0210924F0210924E0210925102109290
:1006A0005002109253021092520210925502109270
:1006B00054029C0197FF02C021503F4F432F532FFC
:1006C000550F550B30E020E0421753070CF048C09F
:1006D0007C01E6E4F2E0101611060CF461C0809192
:1006E000460290914702892B09F06EC010988091C4
:1006F000480290914902892B09F068C011988091B5
:100700004A0290914B02892B09F062C012988091A5
:100710004C0290914D02892B09F05CC01398809196
:100720004E0290914F02892B09F056C01498809187
:10073000500290915102892B09F050C01598809178
:10074000520290915302892B09F04AC01698809169
:10075000540290915502892B09F044C017986DCF2F
:1007600012B852B870E060E0EFE9FFE03197F1F7BE
:1007700000C000006F5F7F4F64367105A9F712B8A3
:1007800070E060E0AFE9BFE01197F1F700C0000052
:100790006F5F7F4F64367105A9F72F5F3F4F94CF8E
:1007A000C80181709927819391931595079590E0E1
:1007B00080E0AFE9BFE01197F1F700C000000196BB
:1007C00084319105B1F787CF109A91CF119A97CFC5
:1007D000129A9DCF139AA3CF149AA9CF159AAFCF8F
:1007E000169AB5CF179A29CF911106C0803219F009
:1007F00089508550D0F7089599278827089597FB49
:10080000072E16F4009406D077FD08D00BD007FC15
:1008100005D03EF4909581959F4F08957095619510
:100820007F4F0895AA1BBB1B51E107C0AA1FBB1F26
:10083000A617B70710F0A61BB70B881F991F5A956C
:10084000A9F780959095BC01CD010895EE0FFF1F8B
:10085000881F8BBF0790F691E02D1994CF93DF93FB
:10086000CDB7DEB7AE014A5F5F4FFA01619171917A
:10087000AF01809145039091460316D0DF91CF914F
:100880000895CF93DF93CDB7DEB7AE014A5F5F4FD8
:10089000FA0161917191AF018091430390914403FA
:1008A00095D3DF91CF9108952F923F924F925F920F
:1008B0006F927F928F929F92AF92BF92CF92DF9270
:1008C000EF92FF920F931F93CF93DF9300D000D04E
:1008D00000D01F921F92CDB7DEB77C013B018A0189
:1008E000FC0117821682838181FFD0C1CE0101965F
:1008F0005C01F7019381F30193FD859193FF819151
:100900003F01882309F449C1853239F493FD85916B
:1009100093FF81913F01853221F4B70190E0BED46D
:10092000E8CF912C212C312CFFE1F31538F08B32DC
:1009300011F190F4803209F1833229F137FC3CC087
:1009400020ED280F2A3050F536FE20C08AE0989E10
:10095000200D1124922E06C08D3291F0803371F754
:10096000689430F8F30193FD859193FF81913F01E5
:100970008111DACF21C0689431F8689432F8F2CF4F
:10098000689433F8EFCF689434F8ECCFEAE02E9E09
:10099000200D1124222E689435F8E4CF8E3229F4EC
:1009A00036FCFBC0689436F8DDCF8C3619F46894B9
:1009B00037F8D8CF8836B1F2982F9F7D9554933071
:1009C000D8F0833691F18337B1F1833509F05EC0F9
:1009D0002801F2E04F0E511CF801C080D180692D32
:1009E00070E036FC02C06FEF7FEFC60105D44C010A
:1009F000689437F882010AC00C5F1F4FFFE3F98348
:100A000088248394912C6501E89437F833FE2AC03A
:100A1000522C8114910459F5552009F46ACFB7017D
:100A200080E290E03BD45A94F7CFF801808189832B
:100A30000E5F1F4FE5CF2801F2E04F0E511CF80169
:100A4000C080D180692D70E036FC02C06FEF7FEF6F
:100A5000C601DDD34C018201D7CFB70180E290E01F
:100A60001DD42A942814190409F0B8F7D1CFF6013F
:100A700037FC859137FE81916F01B70190E00ED46C
:100A800051105A94F1E08F1A9108C3CF843619F0AF
:100A9000893609F073C0F80137FE67C06081718143
:100AA000828193810C5F1F4FF32DFF763F2E97FFBE
:100AB00009C090958095709561957F4F8F4F9F4F9E
:100AC000689437F82AE030E0A50130D4C82ECA185F
:100AD0008C2C432C36FE0CC0E89440F8C91440F42A
:100AE00034FE05C032FC03C0F32DFE7E4F2E892C50
:100AF00044FEA6C0FE01EC0DF11D8081803309F09B
:100B000098C0242D297E422E842D8870582E43FCB7
:100B1000A5C040FE9FC09C2C821418F42C0C922C73
:100B2000981844FEA1C0B70180E390E0B7D342FE1D
:100B300008C088E790E041FE02C088E590E0B70178
:100B4000ADD3C91408F49CC0CA94D12C9FEFC91A24
:100B5000D90ACA0CDB1CF60182916F01B70190E043
:100B60009DD3AC14BD04B9F757CF60817181072EB6
:100B7000000C880B990B0E5F1F4F96CFD32CE89477
:100B8000D4F82AE030E08537E1F1232D297FD22EF9
:100B90008F36A9F1F0F4883551F1F70186819781FC
:100BA0002B960FB6F894DEBF0FBECDBFDF91CF916D
:100BB0001F910F91FF90EF90DF90CF90BF90AF907B
:100BC0009F908F907F906F905F904F903F902F906D
:100BD0000895803749F0883701F7D4FE02C0689441
:100BE000D2F820E130E00DC06894D4F8F6CF34FE9E
:100BF00003C0822F8660D82E20E132E002C028E0B8
:100C000030E0F801D7FE0EC060817181828193814E
:100C10000C5F1F4FA5018AD3C82ECA183D2CE8943B
:100C200037F856CF6081718190E080E00E5F1F4FF2
:100C3000F1CF42FC02C0839467CF8394839464CF46
:100C4000842D867809F460CFF6CFB70180E290E07A
:100C500025D383948214C8F3512C63CF522C581897
:100C6000821408F45ECFF8CF842D867809F469CF1A
:100C70008BE241FE80E247FC8DE2B70190E060CF5D
:100C8000B70180E390E00AD39A945BCF8FEF9FEF98
:100C900087CF20FD09C0FC0123FD05C022FF02C053
:100CA0007383628351834083089544FD17C046FDDA
:100CB0001DC0DB01FC01AA0FBB1FEE1FFF1F10941C
:100CC000D1F76A0F7B1F8E1F9F1F660F771F881F2C
:100CD000991F620F711D811D911D089533E0660FEC
:100CE000771F881F991F3150D1F7F3CF34E0F7CF2A
:100CF0000F931F93CF93DF938C01C80193D2EC0124
:100D000097FD06C071DD892BC1F7B801CE01F6D27F
:100D1000CE01DF91CF911F910F9108958F929F92F5
:100D2000AF92BF92EF92FF920F931F93CF93DF93F7
:100D30008C01D62F7A01B22E75D29C0133272B322B
:100D4000310529F02D323105A1F46894B7F8D1505E
:100D500061F480E0DF91CF911F910F91FF90EF90B0
:100D6000BF90AF909F908F900895C8015BD297FD80
:100D7000F0CFCB2DCD7F2B2D2073E9F48033D9F428
:100D8000AA24AA94AD0E79F0C8014CD297FD0BC0ED
:100D9000282F2F7D283559F4C264D25021F0C80184
:100DA00041D297FF08C0812C912C54011AC0B6FE85
:100DB00029C0C260DA2D812C912C540120ED280F1E
:100DC000283018F1C4FD09C02A30F8F0C6FF05C06C
:100DD0002F7D3FEE320F3630B8F0B8018FD2C1FF11
:100DE000B8CFC7FF08C0B094A09490948094811CA1
:100DF000911CA11CB11C2C2FB501A401C70149DF16
:100E000081E0A8CFC261D6CF27504C2FC501B401D5
:100E10004CDF4B015C01C260D15019F3C80102D212
:100E200097FFCCCFDCCF7F928F929F92AF92BF92F1
:100E3000CF92DF92EF92FF920F931F93CF93DF93A6
:100E4000CDB7DEB7A0970FB6F894DEBF0FBECDBF0B
:100E50005C01962E7A01CE0101966C0180E2F601CA
:100E600011928A95E9F7F501B381890130E020E01C
:100E7000712C812CA0E041E050E0F801B3FD859198
:100E8000B3FF8191982F8F01811117C010E000E00E
:100E9000C801A0960FB6F894DEBF0FBECDBFDF919C
:100EA000CF911F910F91FF90EF90DF90CF90BF9067
:100EB000AF909F908F907F9008958E3519F42115F3
:100EC000310541F1A21713064CF48D3549F18D32ED
:100ED00029F4811006C0882483941DC0882009F459
:100EE00062C0E92FE695E695E695EC0DFD2DF11D26
:100EF000892F8770BA0101C0660F8A95EAF7808151
:100F0000682B6083791651F0971510F49F5FE9CF35
:100F10009150E7CFA1E02F5F3F4FAFCF812CFBCFA8
:100F2000882019F08E8180628E83AA2359F0F60101
:100F30009E012F5D3F4F8081809580833196E2171F
:100F4000F307C9F788248394C5016CD197FD15C0B8
:100F5000E82FE695E695E695EC0DFD2DF11D208137
:100F600030E0AC014770552702C0359527954A956A
:100F7000E2F720FD05C0B501C1D1882069F086CF18
:100F8000E114F10429F0F7018083C70101967C0187
:100F90009A94812C9110D8CFE114F10409F478CF00
:100FA000F701108275CFE82FE695E695E695EC0DF2
:100FB000FD2DF11D982F9770BA0101C0660F9A950B
:100FC000EAF79081692B6083782EA5CF5F926F92AC
:100FD0007F928F929F92AF92BF92CF92DF92EF92C9
:100FE000FF920F931F93CF93DF936C01EB015A0194
:100FF000FC0117821682512CF601E380FE01E3FC0E
:101000008591E3FE8191182FEF018823C9F090E0CC
:10101000EBDB892B19F0C6016BDEEECF153241F404
:10102000FE01E3FC1591E3FE1191EF01153259F435
:10103000C601F8D097FD88C01817F1F2B6015ED14D
:10104000852D90E085C000E01A3231F4E3FC159163
:10105000E3FE1191EF0101E0F12C20ED210F2A3088
:1010600038F101FF34C0FF2059F3183699F11C36CE
:1010700009F43AC0112321F3612F70E084EE90E06F
:10108000B0D0892BE9F2912C812C00FD06C0F5012E
:1010900080809180C50102965C011E3669F5F601DB
:1010A0004681578170E060E0202FC401F2DDA4CFBB
:1010B00002606F2D70E090E080E040E2F6DDF62EF9
:1010C000FE01E3FC1591E3FE1191EF01C6CFFF2471
:1010D000FA94CBCFFE01E3FC1591E3FE1191EF01F1
:1010E000183609F0C7CF08600460FE01E3FC1591D3
:1010F000E3FE1191EF01BECF1336B9F401FD02C03A
:10110000FF24F394C6018ED097FD1EC08114910474
:1011100029F0F4018083C40101964C01FA94F11086
:10112000F1CF00FD69CF539467CF1B3509F59E01C0
:10113000A4016F2DC60177DEEC01892B91F7F60132
:101140008381807309F47CCF8FEF9FEF511078CFAC
:10115000DF91CF911F910F91FF90EF90DF90CF9093
:10116000BF90AF909F908F907F906F905F90089509
:10117000C601BEDD97FDE8CF1F3689F130F4143685
:1011800041F0193639F0006405C01337B1F0153756
:10119000D1F70062202FA4016F2DC601BFDD8111A0
:1011A000C0CFCDCF8114910429F0F4016082C40135
:1011B00001964C01FA94FF2059F0C60133D03C014E
:1011C00097FD06C011DB892B69F3B601C30196D0E8
:1011D0008114910409F4A5CFF4011082A2CF00611B
:1011E000D9CFFC010590061621F00020D9F7C001E7
:1011F00008953197CF010895FC010590615070402A
:101200000110D8F7809590958E0F9F1F0895FC01CF
:101210006150704001900110D8F7809590958E0F25
:101220009F1F0895CF93DF93EC012B8120FF1AC0FD
:1012300026FF0CC02F7B2B838E819F8101969F837D
:101240008E838A8190E0DF91CF91089522FF18C0AC
:10125000E881F9818081082E000C990B009729F410
:1012600020622B838FEF9FEFEECF3196F983E883D7
:101270002E813F812F5F3F4F3F832E839927E3CFFE
:10128000EA85FB85199597FFF3CF2B81019621F015
:1012900080E2822B8B83E6CF80E1FBCF0F931F93FD
:1012A000CF93DF93182F092FEB018B8181FD09C0AC
:1012B0001FEF0FEF812F902FDF91CF911F910F9193
:1012C000089582FF14C02E813F818C819D81281753
:1012D00039073CF4E881F981CF010196998388832D
:1012E00010838E819F8101969F838E83E3CFE88553
:1012F000F985812F1995892BA1F3DACFFB01238181
:1013000020FF11C026FD0FC08F3F980771F0828328
:101310002F7D206423832681378121503109378333
:101320002683992708958FEF9FEF0895FA01AA2742
:10133000283051F1203181F1E8946F936E7F6E5F18
:101340007F4F8F4F9F4FAF4FB1E03ED0B4E03CD0C6
:10135000670F781F891F9A1FA11D680F791F8A1FA9
:10136000911DA11D6A0F711D811D911DA11D20D010
:1013700009F468943F912AE0269F11243019305DCA
:101380003193DEF6CF010895462F4770405D4193BB
:10139000B3E00FD0C9F7F6CF462F4F70405D4A3308
:1013A00018F0495D31FD4052419302D0A9F7EACFD0
:1013B000B4E0A6959795879577956795BA95C9F7FF
:1013C00000976105710508959B01AC010A2E0694F2
:1013D0005795479537952795BA95C9F7620F731FAB
:0C13E000841F951FA01D0895F894FFCFF6
:1013EC000000000300000000C501A0010000000087
:1013FC0000003501A900D60081010701E500F900C4
:10140C00256400456D7066616E67656E3A202569CE
:10141C00202D2D2D2D3E20416E67657A65696774F0
:06142C003A2025690000D2
:00000001FF
