:1000000072C000009EC000009CC00000B3C200008F
:1000100008C3000096C0000094C0000092C0000019
:1000200090C000008EC000008CC000008AC000009C
:1000300088C0000086C0000084C0000082C00000AC
:1000400080C000007EC000007CC000007AC00000BC
:1000500078C0000076C0000074C0000041C20000FB
:1000600070C0000007C20000DCC100006AC00000D0
:1000700068C0000066C0000064C0000062C00000EC
:1000800060C000005EC000005CC0000038C300001B
:1000900058C0000056C0000054C0000052C000000C
:1000A00050C000004EC000004CC000004AC000001C
:1000B00048C0000046C0000044C0000042C000002C
:1000C00040C000003EC000003CC000003AC000003C
:1000D00038C0000036C0000034C0000032C000004C
:1000E00030C00000930311241FBECFEFD1E2DEBF6A
:1000F000CDBF00E00CBF23E0ACE3B2E001C01D9235
:10010000AF32B207E1F712E0A0E0B2E0E6E8F0E1DA
:1001100000E00BBF02C007900D92AC33B107D9F7D6
:1001200010E0C3E7D0E000E005C021970109802F6F
:10013000FE01F3D4C237D10780E00807B1F732D30C
:10014000A0C75ECFE9E2F3E082E092E09183808392
:10015000938382831092C0001092C50087E680933B
:10016000C40088E18093C10086E08093C2000895B6
:10017000109245020895AF92BF92CF92DF92EF9214
:10018000FF920F931F93CF93DF936C017B018B0141
:10019000040F151FEB015E01AE18BF08C017D10791
:1001A00059F06991D601ED91FC910190F081E02D1B
:1001B000C6011995892B79F7C501DF91CF911F9160
:1001C0000F91FF90EF90DF90CF90BF90AF90089588
:1001D000FC01538D448D252F30E0842F90E0821B4D
:1001E000930B541710F0CF96089501970895FC01D2
:1001F000918D828D981761F0A28DAE0FBF2FB11D2A
:100200005D968C91928D9F5F9F73928F90E0089581
:100210008FEF9FEF0895FC01918D828D981731F03B
:10022000828DE80FF11D858D90E008958FEF9FEF8F
:100230000895FC01918D228D892F90E0805C9F4F65
:10024000821B91098F7399270895FC01A48DA80F33
:10025000B92FB11DA35ABF4F2C91848D90E0019608
:100260008F739927848FA689B7892C93A089B18928
:100270008C91837080648C93938D848D981306C0C9
:100280000288F389E02D80818F7D80830895EF922D
:10029000FF920F931F93CF93DF93EC0181E0888F40
:1002A0009B8D8C8D98131AC0E889F989808185FF10
:1002B00015C09FB7F894EE89FF896083E889F989B2
:1002C00080818370806480839FBF81E090E0DF91B4
:1002D000CF911F910F91FF90EF900895F62E0B8D07
:1002E00010E00F5F1F4F0F731127E02E8C8D8E11C2
:1002F0000BC00FB607FCFACFE889F989808185FF2A
:10030000F5CFCE01A2DFF2CFEB8DEC0FFD2FF11D6B
:10031000E35AFF4FF0829FB7F8940B8FEA89FB896D
:1003200080818062D0CFCF93DF93EC01888D8823CA
:10033000B1F0AA89BB89E889F9898C9185FD03C050
:10034000808186FD0CC00FB607FCF7CF8C9185FF2E
:10035000F2CF808185FFEDCFCE0177DFEACFDF914D
:10036000CF91089580914502823099F0833049F011
:100370008130B1F48091C80087FFFCCF8091CE001E
:1003800006C08091300187FFFCCF8091360190E05C
:1003900008958091D00087FFFCCF8091D600F7CFE1
:1003A0008091C00087FFFCCF8091C600F0CFCF9333
:1003B000C82F809145028230F1F0833069F081309E
:1003C00029F5CA3011F48DE0F2DF8091C80085FF75
:1003D000FCCFC093CE000AC0CA3011F48DE0E7DF35
:1003E0008091300185FFFCCFC09336018C2FCC0F5C
:1003F000990BCF910895CA3011F48DE0D8DF809128
:10040000D00085FFFCCFC093D600F0CFCA3011F4E6
:100410008DE0CDDF8091C00085FFFCCFC093C6008A
:10042000E5CF1F920F920FB60F9211240BB60F92C9
:100430002F933F934F935F936F937F938F939F93EC
:10044000AF93BF93EF93FF9386E492E0FEDEFF91BC
:10045000EF91BF91AF919F918F917F916F915F913C
:100460004F913F912F910F900BBE0F900FBE0F90A9
:100470001F9018951F920F920FB60F9211240BB672
:100480000F922F938F939F93EF93FF93E0915602D8
:10049000F09157028081E0915C02F0915D0282FD53
:1004A0001DC0908180915F028F5F8F7320916002E9
:1004B000821741F0E0915F02F0E0EA5BFD4F958F1B
:1004C00080935F02FF91EF919F918F912F910F90F9
:1004D0000BBE0F900FBE0F901F9018958081F2CF2A
:1004E0001F920F920FB60F9211242F933F938F9369
:1004F0009F93AF93BF938091410290914202A0914C
:100500004302B09144023091400223E0230F2D3783
:1005100058F50196A11DB11D209340028093410220
:1005200090934202A0934302B093440280913C0214
:1005300090913D02A0913E02B0913F020196A11D13
:10054000B11D80933C0290933D02A0933E02B09374
:100550003F02BF91AF919F918F913F912F910F904B
:100560000FBE0F901F90189526E8230F0296A11D2D
:10057000B11DD2CF1F920F920FB60F9211240BB65E
:100580000F922F933F934F935F936F937F938F932C
:100590009F93AF93BF93EF93FF93EA982FEF86E774
:1005A00091E0215080409040E1F700C00000609150
:1005B00000027091010290E080E021D126E636E64B
:1005C00046E65FE37DD160D22FD270930102609343
:1005D00000027093950060939400E29AEA9A8091E9
:1005E00001028F93809100028F9382E292E09F93A9
:1005F0008F939BD20F900F900F900F90FF91EF91E0
:10060000BF91AF919F918F917F916F915F914F912A
:100610003F912F910F900BBE0F900FBE0F901F9028
:1006200018951F920F920FB60F9211240BB60F92CE
:10063000CF92DF92EF92FF922F933F934F935F936E
:100640006F937F938F939F93AF93BF93EF93FF939A
:10065000EB982FEF86E791E0215080409040E1F742
:1006600000C00000E39A609100027091010290E0E6
:1006700080E0C5D06B017C0126E236ED43E657E40D
:10068000FFD187FF0DC02DEC3CEC4CE85FE3C701C8
:10069000B60116D1F9D1C8D170930102609300025E
:1006A00080910002909101029093950080939400B4
:1006B000809101028F93809100028F9382E292E0F9
:1006C0009F938F9332D2EB9A0F900F900F900F90D1
:1006D000FF91EF91BF91AF919F918F917F916F911A
:1006E0005F914F913F912F91FF90EF90DF90CF90CE
:1006F0000F900BBE0F900FBE0F901F9018951F927A
:100700000F920FB60F9211248F931F9B09C085B1D2
:100710008F7785B98F910F900FBE0F901F9018950E
:1007200085B18068F6CFE6E4F2E01382128288EEAB
:1007300093E0A0E0B0E084839583A683B78384E14F
:1007400092E09183808385EC90E09587848784ECA8
:1007500090E09787868780EC90E0918B808B81EC8E
:1007600090E0938B828B82EC90E0958B848B86EC6F
:1007700090E0978B868B118E128E138E148EE3EE83
:10078000F2E016821782108611861286138614866E
:10079000158616861786108A118A128A138A148A79
:1007A000158A0895279A81E198E1909395008093A6
:1007B00094008091910083608093910080917100FA
:1007C00081608093710052982398809169008068BD
:1007D00080936900809169008F7B80936900EB9A18
:1007E00080916900806280936900809169008F7EAA
:1007F00080936900EA9ABCDCA5DC7894FFCFE8948A
:1008000009C097FB3EF490958095709561957F4F58
:100810008F4F9F4F9923A9F0F92F96E9BB27939506
:10082000F695879577956795B795F111F8CFFAF416
:10083000BB0F11F460FF1BC06F5F7F4F8F4F9F4F47
:1008400016C0882311F096E911C0772321F09EE8A5
:10085000872F762F05C0662371F096E8862F70E00B
:1008600060E02AF09A95660F771F881FDAF7880FE5
:100870009695879597F90895990F0008550FAA0B3B
:10088000E0E8FEEF16161706E807F907C0F01216A3
:100890001306E407F50798F0621B730B840B950BA6
:1008A00039F40A2661F0232B242B252B21F40895FB
:1008B0000A2609F4A140A6958FEF811D811D089598
:1008C0000BD078C069D028F06ED018F0952309F0CD
:1008D0005AC05FC01124A2C07ED0A0F3959FD1F36F
:1008E000950F50E0551F629FF001729FBB27F00DDE
:1008F000B11D639FAA27F00DB11DAA1F649F662733
:10090000B00DA11D661F829F2227B00DA11D621F81
:10091000739FB00DA11D621F839FA00D611D221F3B
:10092000749F3327A00D611D231F849F600D211D1F
:10093000822F762F6A2F11249F5750408AF0E1F0C2
:1009400088234AF0EE0FFF1FBB1F661F771F881F0B
:1009500091505040A9F79E3F510570F014C05EC001
:100960005F3FECF3983EDCF3869577956795B795F6
:10097000F795E7959F5FC1F7FE2B880F911D969520
:10098000879597F9089597F99F6780E870E060E090
:1009900008959FEF80EC089500240A941616170618
:1009A00018060906089500240A9412161306140660
:1009B00005060895092E0394000C11F4882352F0C3
:1009C000BB0F40F4BF2B11F460FF04C06F5F7F4F7B
:1009D0008F4F9F4F089557FD9058440F551F59F062
:1009E0005F3F71F04795880F97FB991F61F09F3F1C
:1009F00079F087950895121613061406551FF2CF45
:100A00004695F1DF08C0161617061806991FF1CF94
:100A100086957105610508940895E894BB276627BB
:100A20007727CB0197F90895DEDF88F09F5790F084
:100A3000B92F9927B751A0F0D1F0660F771F881F03
:100A4000991F1AF0BA95C9F712C0B13081F0E5DFED
:100A5000B1E00895E2CF672F782F8827B85F39F08B
:100A6000B93FCCF3869577956795B395D9F73EF462
:100A700090958095709561957F4F8F4F9F4F08950A
:100A8000FBDE08F48FEF0895AEDFE0F09E37D8F07C
:100A90009639B8F49E3848F4672F782F8827985FE6
:100AA000F9CF86957795679593959539D0F3B62FBD
:100AB000B1706B0F711D811D20F487957795679537
:100AC000939502C01CC0AACF882371F4772321F02C
:100AD0009850872B762F07C0662311F499270DC0F5
:100AE0009051862B70E060E02AF09A95660F771F90
:100AF000881FDAF7880F9695879597F908959F3F95
:100B000031F0915020F4879577956795B795880FC8
:100B1000911D9695879597F90895EE0FFF1F881FF1
:100B20008BBF0790F691E02D1994CF93DF93CDB74B
:100B3000DEB7AE014A5F5F4FFA0161917191AF017B
:100B400080912B0390912C0303D0DF91CF910895D6
:100B50002F923F924F925F926F927F928F929F92CD
:100B6000AF92BF92CF92DF92EF92FF920F931F93BB
:100B7000CF93DF9300D000D000D01F921F92CDB74B
:100B8000DEB77C013B018A01FC011782168283815A
:100B900081FFD0C1CE0101965C01F7019381F30181
:100BA00093FD859193FF81913F01882309F449C109
:100BB000853239F493FD859193FF81913F01853210
:100BC00021F4B70190E0CFD1E8CF912C212C312C2A
:100BD000FFE1F31538F08B3211F190F4803209F116
:100BE000833229F137FC3CC020ED280F2A3050F524
:100BF00036FE20C08AE0989E200D1124922E06C059
:100C00008D3291F0803371F7689430F8F30193FDE1
:100C1000859193FF81913F018111DACF21C06894C2
:100C200031F8689432F8F2CF689433F8EFCF6894D3
:100C300034F8ECCFEAE02E9E200D1124222E689489
:100C400035F8E4CF8E3229F436FCFBC0689436F8D0
:100C5000DDCF8C3619F4689437F8D8CF8836B1F2E6
:100C6000982F9F7D95549330D8F0833691F1833738
:100C7000B1F1833509F05EC02801F2E04F0E511C3E
:100C8000F801C080D180692D70E036FC02C06FEFA2
:100C90007FEFC60152D14C01689437F882010AC037
:100CA0000C5F1F4FFFE3F98388248394912C650127
:100CB000E89437F833FE2AC0522C8114910459F578
:100CC000552009F46ACFB70180E290E04CD15A94E4
:100CD000F7CFF801808189830E5F1F4FE5CF280190
:100CE000F2E04F0E511CF801C080D180692D70E0F8
:100CF00036FC02C06FEF7FEFC6012AD14C018201A2
:100D0000D7CFB70180E290E02ED12A94281419049D
:100D100009F0B8F7D1CFF60137FC859137FE819104
:100D20006F01B70190E01FD151105A94F1E08F1A72
:100D30009108C3CF843619F0893609F073C0F801E1
:100D400037FE67C060817181828193810C5F1F4F84
:100D5000F32DFF763F2E97FF09C0909580957095F3
:100D600061957F4F8F4F9F4F689437F82AE030E0AE
:100D7000A50129D1C82ECA188C2C432C36FE0CC0D4
:100D8000E89440F8C91440F434FE05C032FC03C0B6
:100D9000F32DFE7E4F2E892C44FEA6C0FE01EC0DE5
:100DA000F11D8081803309F098C0242D297E422EC8
:100DB000842D8870582E43FCA5C040FE9FC09C2CFB
:100DC000821418F42C0C922C981844FEA1C0B70180
:100DD00080E390E0C8D042FE08C088E790E041FE82
:100DE00002C088E590E0B701BED0C91408F49CC0E9
:100DF000CA94D12C9FEFC91AD90ACA0CDB1CF60180
:100E000082916F01B70190E0AED0AC14BD04B9F788
:100E100057CF60817181072E000C880B990B0E5FF4
:100E20001F4F96CFD32CE894D4F82AE030E08537D2
:100E3000E1F1232D297FD22E8F36A9F1F0F48835E8
:100E400051F1F701868197812B960FB6F894DEBF9A
:100E50000FBECDBFDF91CF911F910F91FF90EF900B
:100E6000DF90CF90BF90AF909F908F907F906F90CA
:100E70005F904F903F902F900895803749F08837CA
:100E800001F7D4FE02C06894D2F820E130E00DC032
:100E90006894D4F8F6CF34FE03C0822F8660D82E33
:100EA00020E132E002C028E030E0F801D7FE0EC0B9
:100EB00060817181828193810C5F1F4FA50183D076
:100EC000C82ECA183D2CE89437F856CF608171813E
:100ED00090E080E00E5F1F4FF1CF42FC02C0839490
:100EE00067CF8394839464CF842D867809F460CF90
:100EF000F6CFB70180E290E036D083948214C8F335
:100F0000512C63CF522C5818821408F45ECFF8CFBE
:100F1000842D867809F469CF8BE241FE80E247FC9C
:100F20008DE2B70190E060CFB70180E390E01BD085
:100F30009A945BCF8FEF9FEF87CFFC0105906150B4
:100F400070400110D8F7809590958E0F9F1F0895DF
:100F5000FC016150704001900110D8F78095909588
:100F60008E0F9F1F08950F931F93CF93DF93182F1A
:100F7000092FEB018B8181FD09C01FEF0FEF812F3E
:100F8000902FDF91CF911F910F91089582FF14C090
:100F90002E813F818C819D81281739073CF4E8819F
:100FA000F981CF0101969983888310838E819F8177
:100FB00001969F838E83E3CFE885F985812F19956C
:100FC000892BA1F3DACFFA01AA27283051F1203179
:100FD00081F1E8946F936E7F6E5F7F4F8F4F9F4FCD
:100FE000AF4FB1E03ED0B4E03CD0670F781F891F0F
:100FF0009A1FA11D680F791F8A1F911DA11D6A0FDD
:10100000711D811D911DA11D20D009F468943F918F
:101010002AE0269F11243019305D3193DEF6CF018E
:101020000895462F4770405D4193B3E00FD0C9F754
:10103000F6CF462F4F70405D4A3318F0495D31FDC1
:101040004052419302D0A9F7EACFB4E0A695979514
:10105000879577956795BA95C9F7009761057105EA
:1010600008959B01AC010A2E069457954795379534
:101070002795BA95C9F7620F731F841F951FA01D8E
:061080000895F894FFCF73
:1010860011180000000300000000D701B2010000A3
:10109600000000004701BB00E80093011901F700BA
:1010A6000B01737461727477657274206265747271
:0C10B600616567743A202575200A00006F
:00000001FF
